:020000001828BE
:1000060083160317880189018312871388138316C1
:100016000313850186018701880189018312850101
:0A00260086018701880189010800A6
:100030003F3083120313A4000630A5005B30A600F6
:100040004F30A7006630A8006D30A9007D30AA00AF
:100050000730AB007F30AC006730AD000320A20159
:10006000A30180302306F00080307002031D3A287F
:100070000A302202031853282208243E8400000874
:1000800087000630FB001330FC00AD30FD00FD0B97
:100090004728FC0B4728FB0B472800000000A20A5A
:0A00A0000319A30A31282F28542861
:04400E00F42F000784
:00000001FF
